S01800004763634170706C69636174696F6E33302E7372656328
S11300000C942A000C943F000C943F000C94410083
S11300100C943F000C943F000C943F000C943F0060
S11300200C943F000C943F000C943F000C943F0050
S11300300C943F000C943F000C943F000C943F0040
S11300400C943F000C943F000C943F000C943F0030
S11300500C943F0011241FBECFE5D8E0DEBFCDBF16
S113006010E0A0E6B0E0EAEFF0E002C005900D92E7
S1130070A236B107D9F70E9460000C947B000C945F
S113008000001F920F920FB60F9211248F939F932B
S11300908091600090916100019729F410926100B1
S11300A01092600006C081E090E09093610080931C
S11300B060009F918F910F900FBE0F901F90189525
S11300C078948BB780688BBF84E085BF8FEF81BB4A
S11300D08091600090916100019711F4C09A01C071
S11300E0C0982FEF80E792E0215080409040E1F7E4
S10D00F000C00000EDCFF894FFCF2C
S10500FA0100FF
S9030000FC
